{
  "contractName": "PHDToken",
  "abi": [
    {
      "inputs": [],
      "payable": false,
      "stateMutability": "nonpayable",
      "type": "constructor"
    },
    {
      "anonymous": false,
      "inputs": [
        {
          "indexed": true,
          "internalType": "address",
          "name": "owner",
          "type": "address"
        },
        {
          "indexed": true,
          "internalType": "address",
          "name": "approved",
          "type": "address"
        },
        {
          "indexed": true,
          "internalType": "uint256",
          "name": "tokenId",
          "type": "uint256"
        }
      ],
      "name": "Approval",
      "type": "event"
    },
    {
      "anonymous": false,
      "inputs": [
        {
          "indexed": true,
          "internalType": "address",
          "name": "owner",
          "type": "address"
        },
        {
          "indexed": true,
          "internalType": "address",
          "name": "operator",
          "type": "address"
        },
        {
          "indexed": false,
          "internalType": "bool",
          "name": "approved",
          "type": "bool"
        }
      ],
      "name": "ApprovalForAll",
      "type": "event"
    },
    {
      "anonymous": false,
      "inputs": [
        {
          "indexed": true,
          "internalType": "address",
          "name": "account",
          "type": "address"
        }
      ],
      "name": "MinterAdded",
      "type": "event"
    },
    {
      "anonymous": false,
      "inputs": [
        {
          "indexed": true,
          "internalType": "address",
          "name": "account",
          "type": "address"
        }
      ],
      "name": "MinterRemoved",
      "type": "event"
    },
    {
      "anonymous": false,
      "inputs": [
        {
          "indexed": true,
          "internalType": "address",
          "name": "previousOwner",
          "type": "address"
        },
        {
          "indexed": true,
          "internalType": "address",
          "name": "newOwner",
          "type": "address"
        }
      ],
      "name": "OwnershipTransferred",
      "type": "event"
    },
    {
      "anonymous": false,
      "inputs": [
        {
          "indexed": false,
          "internalType": "address",
          "name": "account",
          "type": "address"
        }
      ],
      "name": "Paused",
      "type": "event"
    },
    {
      "anonymous": false,
      "inputs": [
        {
          "indexed": true,
          "internalType": "address",
          "name": "account",
          "type": "address"
        }
      ],
      "name": "PauserAdded",
      "type": "event"
    },
    {
      "anonymous": false,
      "inputs": [
        {
          "indexed": true,
          "internalType": "address",
          "name": "account",
          "type": "address"
        }
      ],
      "name": "PauserRemoved",
      "type": "event"
    },
    {
      "anonymous": false,
      "inputs": [
        {
          "indexed": true,
          "internalType": "address",
          "name": "from",
          "type": "address"
        },
        {
          "indexed": true,
          "internalType": "address",
          "name": "to",
          "type": "address"
        },
        {
          "indexed": true,
          "internalType": "uint256",
          "name": "tokenId",
          "type": "uint256"
        }
      ],
      "name": "Transfer",
      "type": "event"
    },
    {
      "anonymous": false,
      "inputs": [
        {
          "indexed": false,
          "internalType": "address",
          "name": "account",
          "type": "address"
        }
      ],
      "name": "Unpaused",
      "type": "event"
    },
    {
      "constant": false,
      "inputs": [
        {
          "internalType": "address",
          "name": "to",
          "type": "address"
        },
        {
          "internalType": "uint256",
          "name": "tokenId",
          "type": "uint256"
        }
      ],
      "name": "approve",
      "outputs": [],
      "payable": false,
      "stateMutability": "nonpayable",
      "type": "function"
    },
    {
      "constant": true,
      "inputs": [
        {
          "internalType": "address",
          "name": "owner",
          "type": "address"
        }
      ],
      "name": "balanceOf",
      "outputs": [
        {
          "internalType": "uint256",
          "name": "",
          "type": "uint256"
        }
      ],
      "payable": false,
      "stateMutability": "view",
      "type": "function"
    },
    {
      "constant": true,
      "inputs": [
        {
          "internalType": "uint256",
          "name": "tokenId",
          "type": "uint256"
        }
      ],
      "name": "getApproved",
      "outputs": [
        {
          "internalType": "address",
          "name": "",
          "type": "address"
        }
      ],
      "payable": false,
      "stateMutability": "view",
      "type": "function"
    },
    {
      "constant": true,
      "inputs": [
        {
          "internalType": "address",
          "name": "owner",
          "type": "address"
        },
        {
          "internalType": "address",
          "name": "operator",
          "type": "address"
        }
      ],
      "name": "isApprovedForAll",
      "outputs": [
        {
          "internalType": "bool",
          "name": "",
          "type": "bool"
        }
      ],
      "payable": false,
      "stateMutability": "view",
      "type": "function"
    },
    {
      "constant": true,
      "inputs": [
        {
          "internalType": "address",
          "name": "account",
          "type": "address"
        }
      ],
      "name": "isMinter",
      "outputs": [
        {
          "internalType": "bool",
          "name": "",
          "type": "bool"
        }
      ],
      "payable": false,
      "stateMutability": "view",
      "type": "function"
    },
    {
      "constant": true,
      "inputs": [],
      "name": "isOwner",
      "outputs": [
        {
          "internalType": "bool",
          "name": "",
          "type": "bool"
        }
      ],
      "payable": false,
      "stateMutability": "view",
      "type": "function"
    },
    {
      "constant": true,
      "inputs": [
        {
          "internalType": "address",
          "name": "account",
          "type": "address"
        }
      ],
      "name": "isPauser",
      "outputs": [
        {
          "internalType": "bool",
          "name": "",
          "type": "bool"
        }
      ],
      "payable": false,
      "stateMutability": "view",
      "type": "function"
    },
    {
      "constant": true,
      "inputs": [],
      "name": "name",
      "outputs": [
        {
          "internalType": "string",
          "name": "",
          "type": "string"
        }
      ],
      "payable": false,
      "stateMutability": "view",
      "type": "function"
    },
    {
      "constant": true,
      "inputs": [],
      "name": "owner",
      "outputs": [
        {
          "internalType": "address",
          "name": "",
          "type": "address"
        }
      ],
      "payable": false,
      "stateMutability": "view",
      "type": "function"
    },
    {
      "constant": true,
      "inputs": [
        {
          "internalType": "uint256",
          "name": "tokenId",
          "type": "uint256"
        }
      ],
      "name": "ownerOf",
      "outputs": [
        {
          "internalType": "address",
          "name": "",
          "type": "address"
        }
      ],
      "payable": false,
      "stateMutability": "view",
      "type": "function"
    },
    {
      "constant": false,
      "inputs": [],
      "name": "pause",
      "outputs": [],
      "payable": false,
      "stateMutability": "nonpayable",
      "type": "function"
    },
    {
      "constant": true,
      "inputs": [],
      "name": "paused",
      "outputs": [
        {
          "internalType": "bool",
          "name": "",
          "type": "bool"
        }
      ],
      "payable": false,
      "stateMutability": "view",
      "type": "function"
    },
    {
      "constant": false,
      "inputs": [],
      "name": "renounceMinter",
      "outputs": [],
      "payable": false,
      "stateMutability": "nonpayable",
      "type": "function"
    },
    {
      "constant": false,
      "inputs": [],
      "name": "renounceOwnership",
      "outputs": [],
      "payable": false,
      "stateMutability": "nonpayable",
      "type": "function"
    },
    {
      "constant": false,
      "inputs": [],
      "name": "renouncePauser",
      "outputs": [],
      "payable": false,
      "stateMutability": "nonpayable",
      "type": "function"
    },
    {
      "constant": false,
      "inputs": [
        {
          "internalType": "address",
          "name": "from",
          "type": "address"
        },
        {
          "internalType": "address",
          "name": "to",
          "type": "address"
        },
        {
          "internalType": "uint256",
          "name": "tokenId",
          "type": "uint256"
        }
      ],
      "name": "safeTransferFrom",
      "outputs": [],
      "payable": false,
      "stateMutability": "nonpayable",
      "type": "function"
    },
    {
      "constant": false,
      "inputs": [
        {
          "internalType": "address",
          "name": "from",
          "type": "address"
        },
        {
          "internalType": "address",
          "name": "to",
          "type": "address"
        },
        {
          "internalType": "uint256",
          "name": "tokenId",
          "type": "uint256"
        },
        {
          "internalType": "bytes",
          "name": "_data",
          "type": "bytes"
        }
      ],
      "name": "safeTransferFrom",
      "outputs": [],
      "payable": false,
      "stateMutability": "nonpayable",
      "type": "function"
    },
    {
      "constant": false,
      "inputs": [
        {
          "internalType": "address",
          "name": "to",
          "type": "address"
        },
        {
          "internalType": "bool",
          "name": "approved",
          "type": "bool"
        }
      ],
      "name": "setApprovalForAll",
      "outputs": [],
      "payable": false,
      "stateMutability": "nonpayable",
      "type": "function"
    },
    {
      "constant": true,
      "inputs": [
        {
          "internalType": "bytes4",
          "name": "interfaceId",
          "type": "bytes4"
        }
      ],
      "name": "supportsInterface",
      "outputs": [
        {
          "internalType": "bool",
          "name": "",
          "type": "bool"
        }
      ],
      "payable": false,
      "stateMutability": "view",
      "type": "function"
    },
    {
      "constant": true,
      "inputs": [],
      "name": "symbol",
      "outputs": [
        {
          "internalType": "string",
          "name": "",
          "type": "string"
        }
      ],
      "payable": false,
      "stateMutability": "view",
      "type": "function"
    },
    {
      "constant": true,
      "inputs": [
        {
          "internalType": "uint256",
          "name": "index",
          "type": "uint256"
        }
      ],
      "name": "tokenByIndex",
      "outputs": [
        {
          "internalType": "uint256",
          "name": "",
          "type": "uint256"
        }
      ],
      "payable": false,
      "stateMutability": "view",
      "type": "function"
    },
    {
      "constant": true,
      "inputs": [
        {
          "internalType": "address",
          "name": "owner",
          "type": "address"
        },
        {
          "internalType": "uint256",
          "name": "index",
          "type": "uint256"
        }
      ],
      "name": "tokenOfOwnerByIndex",
      "outputs": [
        {
          "internalType": "uint256",
          "name": "",
          "type": "uint256"
        }
      ],
      "payable": false,
      "stateMutability": "view",
      "type": "function"
    },
    {
      "constant": true,
      "inputs": [
        {
          "internalType": "uint256",
          "name": "tokenId",
          "type": "uint256"
        }
      ],
      "name": "tokenURI",
      "outputs": [
        {
          "internalType": "string",
          "name": "",
          "type": "string"
        }
      ],
      "payable": false,
      "stateMutability": "view",
      "type": "function"
    },
    {
      "constant": true,
      "inputs": [],
      "name": "totalSupply",
      "outputs": [
        {
          "internalType": "uint256",
          "name": "",
          "type": "uint256"
        }
      ],
      "payable": false,
      "stateMutability": "view",
      "type": "function"
    },
    {
      "constant": false,
      "inputs": [
        {
          "internalType": "address",
          "name": "from",
          "type": "address"
        },
        {
          "internalType": "address",
          "name": "to",
          "type": "address"
        },
        {
          "internalType": "uint256",
          "name": "tokenId",
          "type": "uint256"
        }
      ],
      "name": "transferFrom",
      "outputs": [],
      "payable": false,
      "stateMutability": "nonpayable",
      "type": "function"
    },
    {
      "constant": false,
      "inputs": [
        {
          "internalType": "address",
          "name": "newOwner",
          "type": "address"
        }
      ],
      "name": "transferOwnership",
      "outputs": [],
      "payable": false,
      "stateMutability": "nonpayable",
      "type": "function"
    },
    {
      "constant": false,
      "inputs": [],
      "name": "unpause",
      "outputs": [],
      "payable": false,
      "stateMutability": "nonpayable",
      "type": "function"
    },
    {
      "constant": false,
      "inputs": [
        {
          "internalType": "address",
          "name": "_to",
          "type": "address"
        },
        {
          "internalType": "string",
          "name": "_tokenURI",
          "type": "string"
        }
      ],
      "name": "mint",
      "outputs": [
        {
          "internalType": "bool",
          "name": "",
          "type": "bool"
        }
      ],
      "payable": false,
      "stateMutability": "nonpayable",
      "type": "function"
    },
    {
      "constant": false,
      "inputs": [
        {
          "internalType": "address",
          "name": "_account",
          "type": "address"
        }
      ],
      "name": "addMinter",
      "outputs": [],
      "payable": false,
      "stateMutability": "nonpayable",
      "type": "function"
    },
    {
      "constant": false,
      "inputs": [
        {
          "internalType": "address",
          "name": "_account",
          "type": "address"
        }
      ],
      "name": "removeMinter",
      "outputs": [],
      "payable": false,
      "stateMutability": "nonpayable",
      "type": "function"
    },
    {
      "constant": false,
      "inputs": [
        {
          "internalType": "address",
          "name": "_account",
          "type": "address"
        }
      ],
      "name": "addPauser",
      "outputs": [],
      "payable": false,
      "stateMutability": "nonpayable",
      "type": "function"
    },
    {
      "constant": false,
      "inputs": [
        {
          "internalType": "address",
          "name": "_account",
          "type": "address"
        }
      ],
      "name": "removePauser",
      "outputs": [],
      "payable": false,
      "stateMutability": "nonpayable",
      "type": "function"
    }
  ],
  "bytecode": "0x60806040523480156200001157600080fd5b506040805180820182526009815268283422102a37b5b2b760b91b60208083019190915282518084018452600381526214121160ea1b91810191909152600080546001600160a01b0319163317808255935192939192849284926001600160a01b0391909116917f8be0079c531659141344cd1fd0a4f28419497f9722a3daafe3b4186f6b6457e0908290a3620000b1336001600160e01b036200016e16565b620000cc6301ffc9a760e01b6001600160e01b03620001c016565b620000e76380ac58cd60e01b6001600160e01b03620001c016565b6200010263780e9d6360e01b6001600160e01b03620001c016565b81516200011790600b9060208501906200038d565b5080516200012d90600c9060208401906200038d565b5062000149635b5e139f60e01b6001600160e01b03620001c016565b505050506200015e336200024560201b60201c565b600f805460ff1916905562000432565b620001898160016200029760201b620018a01790919060201c565b6040516001600160a01b038216907f6ae172837ea30b801fbfcdd4108aa1d5bf8ff775444fd70256b44e6bf3dfc3f690600090a250565b6001600160e01b0319808216141562000220576040805162461bcd60e51b815260206004820152601c60248201527f4552433136353a20696e76616c696420696e7465726661636520696400000000604482015290519081900360640190fd5b6001600160e01b0319166000908152600260205260409020805460ff19166001179055565b6200026081600e6200029760201b620018a01790919060201c565b6040516001600160a01b038216907f6719d08c1888103bea251a4ed56406bd0c3e69723c8a1686e017e7bbe159b6f890600090a250565b620002ac82826001600160e01b036200032416565b15620002ff576040805162461bcd60e51b815260206004820152601f60248201527f526f6c65733a206163636f756e7420616c72656164792068617320726f6c6500604482015290519081900360640190fd5b6001600160a01b0316600090815260209190915260409020805460ff19166001179055565b60006001600160a01b0382166200036d5760405162461bcd60e51b81526004018080602001828103825260228152602001806200272a6022913960400191505060405180910390fd5b506001600160a01b03166000908152602091909152604090205460ff1690565b828054600181600116156101000203166002900490600052602060002090601f016020900481019282601f10620003d057805160ff191683800117855562000400565b8280016001018555821562000400579182015b8281111562000400578251825591602001919060010190620003e3565b506200040e92915062000412565b5090565b6200042f91905b808211156200040e576000815560010162000419565b90565b6122e880620004426000396000f3fe608060405234801561001057600080fd5b50600436106101f05760003560e01c806370a082311161010f57806398650275116100a2578063c87b56dd11610071578063c87b56dd14610646578063d0def52114610663578063e985e9c514610719578063f2fde38b14610747576101f0565b80639865027514610524578063a22cb4651461052c578063aa271e1a1461055a578063b88d4fde14610580576101f0565b80638da5cb5b116100de5780638da5cb5b146104e65780638f32d59b146104ee57806395d89b41146104f6578063983b2d56146104fe576101f0565b806370a082311461048a578063715018a6146104b057806382dc1ec4146104b85780638456cb59146104de576101f0565b80633f4ba83a116101875780635c975abb116101565780635c975abb146104375780636352211e1461043f5780636b2c0f551461045c5780636ef8d66d14610482576101f0565b80633f4ba83a146103b657806342842e0e146103be57806346fbf68e146103f45780634f6ccce71461041a576101f0565b806318160ddd116101c357806318160ddd1461031457806323b872dd1461032e5780632f745c59146103645780633092afd514610390576101f0565b806301ffc9a7146101f557806306fdde0314610230578063081812fc146102ad578063095ea7b3146102e6575b600080fd5b61021c6004803603602081101561020b57600080fd5b50356001600160e01b03191661076d565b604080519115158252519081900360200190f35b61023861078c565b6040805160208082528351818301528351919283929083019185019080838360005b8381101561027257818101518382015260200161025a565b50505050905090810190601f16801561029f5780820380516001836020036101000a031916815260200191505b509250505060405180910390f35b6102ca600480360360208110156102c357600080fd5b5035610823565b604080516001600160a01b039092168252519081900360200190f35b610312600480360360408110156102fc57600080fd5b506001600160a01b038135169060200135610885565b005b61031c6108de565b60408051918252519081900360200190f35b6103126004803603606081101561034457600080fd5b506001600160a01b038135811691602081013590911690604001356108e4565b61031c6004803603604081101561037a57600080fd5b506001600160a01b03813516906020013561093f565b610312600480360360208110156103a657600080fd5b50356001600160a01b03166109be565b610312610a11565b610312600480360360608110156103d457600080fd5b506001600160a01b03813581169160208101359091169060400135610ae2565b61021c6004803603602081101561040a57600080fd5b50356001600160a01b0316610afd565b61031c6004803603602081101561043057600080fd5b5035610b16565b61021c610b7c565b6102ca6004803603602081101561045557600080fd5b5035610b85565b6103126004803603602081101561047257600080fd5b50356001600160a01b0316610bd9565b610312610c29565b61031c600480360360208110156104a057600080fd5b50356001600160a01b0316610c34565b610312610c9c565b610312600480360360208110156104ce57600080fd5b50356001600160a01b0316610d2d565b610312610d7d565b6102ca610e4e565b61021c610e5d565b610238610e6e565b6103126004803603602081101561051457600080fd5b50356001600160a01b0316610ecf565b610312610f1f565b6103126004803603604081101561054257600080fd5b506001600160a01b0381351690602001351515610f28565b61021c6004803603602081101561057057600080fd5b50356001600160a01b0316610f7d565b6103126004803603608081101561059657600080fd5b6001600160a01b038235811692602081013590911691604082013591908101906080810160608201356401000000008111156105d157600080fd5b8201836020820111156105e357600080fd5b8035906020019184600183028401116401000000008311171561060557600080fd5b91908080601f016020809104026020016040519081016040528093929190818152602001838380828437600092019190915250929550610f90945050505050565b6102386004803603602081101561065c57600080fd5b5035610fe8565b61021c6004803603604081101561067957600080fd5b6001600160a01b0382351691908101906040810160208201356401000000008111156106a457600080fd5b8201836020820111156106b657600080fd5b803590602001918460018302840111640100000000831117156106d857600080fd5b91908080601f0160208091040260200160405190810160405280939291908181526020018383808284376000920191909152509295506110cd945050505050565b61021c6004803603604081101561072f57600080fd5b506001600160a01b0381358116916020013516611126565b6103126004803603602081101561075d57600080fd5b50356001600160a01b0316611154565b6001600160e01b03191660009081526002602052604090205460ff1690565b600b8054604080516020601f60026000196101006001881615020190951694909404938401819004810282018101909252828152606093909290918301828280156108185780601f106107ed57610100808354040283529160200191610818565b820191906000526020600020905b8154815290600101906020018083116107fb57829003601f168201915b505050505090505b90565b600061082e826111a4565b6108695760405162461bcd60e51b815260040180806020018281038252602c815260200180612144602c913960400191505060405180910390fd5b506000908152600460205260409020546001600160a01b031690565b600f5460ff16156108d0576040805162461bcd60e51b815260206004820152601060248201526f14185d5cd8589b194e881c185d5cd95960821b604482015290519081900360640190fd5b6108da82826111c1565b5050565b60095490565b600f5460ff161561092f576040805162461bcd60e51b815260206004820152601060248201526f14185d5cd8589b194e881c185d5cd95960821b604482015290519081900360640190fd5b61093a8383836112d2565b505050565b600061094a83610c34565b82106109875760405162461bcd60e51b815260040180806020018281038252602b815260200180611f65602b913960400191505060405180910390fd5b6001600160a01b03831660009081526007602052604090208054839081106109ab57fe5b9060005260206000200154905092915050565b6109c6610e5d565b610a05576040805162461bcd60e51b8152602060048201819052602482015260008051602061219c833981519152604482015290519081900360640190fd5b610a0e81611322565b50565b610a1a33610afd565b610a555760405162461bcd60e51b8152600401808060200182810382526030815260200180611fc26030913960400191505060405180910390fd5b600f5460ff16610aa3576040805162461bcd60e51b815260206004820152601460248201527314185d5cd8589b194e881b9bdd081c185d5cd95960621b604482015290519081900360640190fd5b600f805460ff191690556040805133815290517f5db9ee0a495bf2e6ff9c91a7834c1ba4fdd244a5e8aa4e537bd38aeae4b073aa9181900360200190a1565b61093a83838360405180602001604052806000815250610f90565b6000610b10600e8363ffffffff61136a16565b92915050565b6000610b206108de565b8210610b5d5760405162461bcd60e51b815260040180806020018281038252602c815260200180612288602c913960400191505060405180910390fd5b60098281548110610b6a57fe5b90600052602060002001549050919050565b600f5460ff1690565b6000818152600360205260408120546001600160a01b031680610b105760405162461bcd60e51b81526004018080602001828103825260298152602001806120ca6029913960400191505060405180910390fd5b610be1610e5d565b610c20576040805162461bcd60e51b8152602060048201819052602482015260008051602061219c833981519152604482015290519081900360640190fd5b610a0e816113d1565b610c32336113d1565b565b60006001600160a01b038216610c7b5760405162461bcd60e51b815260040180806020018281038252602a8152602001806120a0602a913960400191505060405180910390fd5b6001600160a01b0382166000908152600560205260409020610b1090611419565b610ca4610e5d565b610ce3576040805162461bcd60e51b8152602060048201819052602482015260008051602061219c833981519152604482015290519081900360640190fd5b600080546040516001600160a01b03909116907f8be0079c531659141344cd1fd0a4f28419497f9722a3daafe3b4186f6b6457e0908390a3600080546001600160a01b0319169055565b610d35610e5d565b610d74576040805162461bcd60e51b8152602060048201819052602482015260008051602061219c833981519152604482015290519081900360640190fd5b610a0e8161141d565b610d8633610afd565b610dc15760405162461bcd60e51b8152600401808060200182810382526030815260200180611fc26030913960400191505060405180910390fd5b600f5460ff1615610e0c576040805162461bcd60e51b815260206004820152601060248201526f14185d5cd8589b194e881c185d5cd95960821b604482015290519081900360640190fd5b600f805460ff191660011790556040805133815290517f62e78cea01bee320cd4e420270b5ea74000d11b0c9f74754ebdbfc544b05a2589181900360200190a1565b6000546001600160a01b031690565b6000546001600160a01b0316331490565b600c8054604080516020601f60026000196101006001881615020190951694909404938401819004810282018101909252828152606093909290918301828280156108185780601f106107ed57610100808354040283529160200191610818565b610ed7610e5d565b610f16576040805162461bcd60e51b8152602060048201819052602482015260008051602061219c833981519152604482015290519081900360640190fd5b610a0e81611465565b610c3233611322565b600f5460ff1615610f73576040805162461bcd60e51b815260206004820152601060248201526f14185d5cd8589b194e881c185d5cd95960821b604482015290519081900360640190fd5b6108da82826114ad565b6000610b1060018363ffffffff61136a16565b610f9b8484846108e4565b610fa784848484611579565b610fe25760405162461bcd60e51b8152600401808060200182810382526032815260200180611f906032913960400191505060405180910390fd5b50505050565b6060610ff3826111a4565b61102e5760405162461bcd60e51b815260040180806020018281038252602f815260200180612207602f913960400191505060405180910390fd5b6000828152600d602090815260409182902080548351601f6002600019610100600186161502019093169290920491820184900484028101840190945280845290918301828280156110c15780601f10611096576101008083540402835291602001916110c1565b820191906000526020600020905b8154815290600101906020018083116110a457829003601f168201915b50505050509050919050565b60006110d833610f7d565b6111135760405162461bcd60e51b81526004018080602001828103825260308152602001806120f36030913960400191505060405180910390fd5b61111d83836116ad565b50600192915050565b6001600160a01b03918216600090815260066020908152604080832093909416825291909152205460ff1690565b61115c610e5d565b61119b576040805162461bcd60e51b8152602060048201819052602482015260008051602061219c833981519152604482015290519081900360640190fd5b610a0e816116de565b6000908152600360205260409020546001600160a01b0316151590565b60006111cc82610b85565b9050806001600160a01b0316836001600160a01b0316141561121f5760405162461bcd60e51b81526004018080602001828103825260218152602001806122366021913960400191505060405180910390fd5b336001600160a01b038216148061123b575061123b8133611126565b6112765760405162461bcd60e51b81526004018080602001828103825260388152602001806120686038913960400191505060405180910390fd5b60008281526004602052604080822080546001600160a01b0319166001600160a01b0387811691821790925591518593918516917f8c5be1e5ebec7d5bd14f71427d1e84f3dd0314c0f7b2291e5b200ac8c7c3b92591a4505050565b6112dc338261177e565b6113175760405162461bcd60e51b81526004018080602001828103825260318152602001806122576031913960400191505060405180910390fd5b61093a83838361181a565b61133360018263ffffffff61183916565b6040516001600160a01b038216907fe94479a9f7e1952cc78f2d6baab678adc1b772d936c6583def489e524cb6669290600090a250565b60006001600160a01b0382166113b15760405162461bcd60e51b81526004018080602001828103825260228152602001806121bc6022913960400191505060405180910390fd5b506001600160a01b03166000908152602091909152604090205460ff1690565b6113e2600e8263ffffffff61183916565b6040516001600160a01b038216907fcd265ebaf09df2871cc7bd4133404a235ba12eff2041bb89d9c714a2621c7c7e90600090a250565b5490565b61142e600e8263ffffffff6118a016565b6040516001600160a01b038216907f6719d08c1888103bea251a4ed56406bd0c3e69723c8a1686e017e7bbe159b6f890600090a250565b61147660018263ffffffff6118a016565b6040516001600160a01b038216907f6ae172837ea30b801fbfcdd4108aa1d5bf8ff775444fd70256b44e6bf3dfc3f690600090a250565b6001600160a01b03821633141561150b576040805162461bcd60e51b815260206004820152601960248201527f4552433732313a20617070726f766520746f2063616c6c657200000000000000604482015290519081900360640190fd5b3360008181526006602090815260408083206001600160a01b03871680855290835292819020805460ff1916861515908117909155815190815290519293927f17307eab39ab6107e8899845ad3d59bd9653f200f220920489ca2b5937696c31929181900390910190a35050565b600061158d846001600160a01b0316611921565b611599575060016116a5565b604051630a85bd0160e11b815233600482018181526001600160a01b03888116602485015260448401879052608060648501908152865160848601528651600095928a169463150b7a029490938c938b938b939260a4019060208501908083838e5b838110156116135781810151838201526020016115fb565b50505050905090810190601f1680156116405780820380516001836020036101000a031916815260200191505b5095505050505050602060405180830381600087803b15801561166257600080fd5b505af1158015611676573d6000803e3d6000fd5b505050506040513d602081101561168c57600080fd5b50516001600160e01b031916630a85bd0160e11b149150505b949350505050565b60006116c860016116bc6108de565b9063ffffffff61192716565b90506116d48382611988565b61093a81836119a5565b6001600160a01b0381166117235760405162461bcd60e51b8152600401808060200182810382526026815260200180611ff26026913960400191505060405180910390fd5b600080546040516001600160a01b03808516939216917f8be0079c531659141344cd1fd0a4f28419497f9722a3daafe3b4186f6b6457e091a3600080546001600160a01b0319166001600160a01b0392909216919091179055565b6000611789826111a4565b6117c45760405162461bcd60e51b815260040180806020018281038252602c81526020018061203c602c913960400191505060405180910390fd5b60006117cf83610b85565b9050806001600160a01b0316846001600160a01b0316148061180a5750836001600160a01b03166117ff84610823565b6001600160a01b0316145b806116a557506116a58185611126565b611825838383611a08565b61182f8382611b4c565b61093a8282611c41565b611843828261136a565b61187e5760405162461bcd60e51b81526004018080602001828103825260218152602001806121236021913960400191505060405180910390fd5b6001600160a01b0316600090815260209190915260409020805460ff19169055565b6118aa828261136a565b156118fc576040805162461bcd60e51b815260206004820152601f60248201527f526f6c65733a206163636f756e7420616c72656164792068617320726f6c6500604482015290519081900360640190fd5b6001600160a01b0316600090815260209190915260409020805460ff19166001179055565b3b151590565b600082820183811015611981576040805162461bcd60e51b815260206004820152601b60248201527f536166654d6174683a206164646974696f6e206f766572666c6f770000000000604482015290519081900360640190fd5b9392505050565b6119928282611c7f565b61199c8282611c41565b6108da81611db0565b6119ae826111a4565b6119e95760405162461bcd60e51b815260040180806020018281038252602c815260200180612170602c913960400191505060405180910390fd5b6000828152600d60209081526040909120825161093a92840190611eac565b826001600160a01b0316611a1b82610b85565b6001600160a01b031614611a605760405162461bcd60e51b81526004018080602001828103825260298152602001806121de6029913960400191505060405180910390fd5b6001600160a01b038216611aa55760405162461bcd60e51b81526004018080602001828103825260248152602001806120186024913960400191505060405180910390fd5b611aae81611df4565b6001600160a01b0383166000908152600560205260409020611acf90611e2f565b6001600160a01b0382166000908152600560205260409020611af090611e46565b60008181526003602052604080822080546001600160a01b0319166001600160a01b0386811691821790925591518493918716917fddf252ad1be2c89b69c2b068fc378daa952ba7f163c4a11628f55a4df523b3ef91a4505050565b6001600160a01b038216600090815260076020526040812054611b7690600163ffffffff611e4f16565b600083815260086020526040902054909150808214611c11576001600160a01b0384166000908152600760205260408120805484908110611bb357fe5b906000526020600020015490508060076000876001600160a01b03166001600160a01b031681526020019081526020016000208381548110611bf157fe5b600091825260208083209091019290925591825260089052604090208190555b6001600160a01b0384166000908152600760205260409020805490611c3a906000198301611f2a565b5050505050565b6001600160a01b0390911660009081526007602081815260408084208054868652600884529185208290559282526001810183559183529091200155565b6001600160a01b038216611cda576040805162461bcd60e51b815260206004820181905260248201527f4552433732313a206d696e7420746f20746865207a65726f2061646472657373604482015290519081900360640190fd5b611ce3816111a4565b15611d35576040805162461bcd60e51b815260206004820152601c60248201527f4552433732313a20746f6b656e20616c7265616479206d696e74656400000000604482015290519081900360640190fd5b600081815260036020908152604080832080546001600160a01b0319166001600160a01b038716908117909155835260059091529020611d7490611e46565b60405181906001600160a01b038416906000907fddf252ad1be2c89b69c2b068fc378daa952ba7f163c4a11628f55a4df523b3ef908290a45050565b600980546000838152600a60205260408120829055600182018355919091527f6e1540171b6c0c960b71a7020d9f60077f6af931a8bbf590da0223dacf75c7af0155565b6000818152600460205260409020546001600160a01b031615610a0e57600090815260046020526040902080546001600160a01b0319169055565b8054611e4290600163ffffffff611e4f16565b9055565b80546001019055565b600082821115611ea6576040805162461bcd60e51b815260206004820152601e60248201527f536166654d6174683a207375627472616374696f6e206f766572666c6f770000604482015290519081900360640190fd5b50900390565b828054600181600116156101000203166002900490600052602060002090601f016020900481019282601f10611eed57805160ff1916838001178555611f1a565b82800160010185558215611f1a579182015b82811115611f1a578251825591602001919060010190611eff565b50611f26929150611f4a565b5090565b81548183558181111561093a5760008381526020902061093a9181019083015b61082091905b80821115611f265760008155600101611f5056fe455243373231456e756d657261626c653a206f776e657220696e646578206f7574206f6620626f756e64734552433732313a207472616e7366657220746f206e6f6e20455243373231526563656976657220696d706c656d656e746572506175736572526f6c653a2063616c6c657220646f6573206e6f742068617665207468652050617573657220726f6c654f776e61626c653a206e6577206f776e657220697320746865207a65726f20616464726573734552433732313a207472616e7366657220746f20746865207a65726f20616464726573734552433732313a206f70657261746f7220717565727920666f72206e6f6e6578697374656e7420746f6b656e4552433732313a20617070726f76652063616c6c6572206973206e6f74206f776e6572206e6f7220617070726f76656420666f7220616c6c4552433732313a2062616c616e636520717565727920666f7220746865207a65726f20616464726573734552433732313a206f776e657220717565727920666f72206e6f6e6578697374656e7420746f6b656e4d696e746572526f6c653a2063616c6c657220646f6573206e6f74206861766520746865204d696e74657220726f6c65526f6c65733a206163636f756e7420646f6573206e6f74206861766520726f6c654552433732313a20617070726f76656420717565727920666f72206e6f6e6578697374656e7420746f6b656e4552433732314d657461646174613a2055524920736574206f66206e6f6e6578697374656e7420746f6b656e4f776e61626c653a2063616c6c6572206973206e6f7420746865206f776e6572526f6c65733a206163636f756e7420697320746865207a65726f20616464726573734552433732313a207472616e73666572206f6620746f6b656e2074686174206973206e6f74206f776e4552433732314d657461646174613a2055524920717565727920666f72206e6f6e6578697374656e7420746f6b656e4552433732313a20617070726f76616c20746f2063757272656e74206f776e65724552433732313a207472616e736665722063616c6c6572206973206e6f74206f776e6572206e6f7220617070726f766564455243373231456e756d657261626c653a20676c6f62616c20696e646578206f7574206f6620626f756e6473a265627a7a723158209f10ab9afcdd9b60b11f17ab543d223b0bc223ec0f8a6c3f47a7b4044b306bdd64736f6c63430005100032526f6c65733a206163636f756e7420697320746865207a65726f2061646472657373",
  "source": "pragma solidity ^0.5.0;\n\nimport \"@openzeppelin/contracts/token/ERC721/ERC721Full.sol\";\nimport \"@openzeppelin/contracts/token/ERC721/ERC721Pausable.sol\";\nimport \"@openzeppelin/contracts/access/roles/MinterRole.sol\";\nimport \"@openzeppelin/contracts/ownership/Ownable.sol\";\nimport \"@openzeppelin/contracts/math/SafeMath.sol\";\n\ncontract PHDToken is Ownable, MinterRole, ERC721Full, ERC721Pausable {\n  using SafeMath for uint;\n\n  constructor() ERC721Full(\"PhD Token\", \"PHD\") public {\n  }\n\n  function mint(address _to, string memory _tokenURI) public onlyMinter returns (bool) {\n    _mintWithTokenURI(_to, _tokenURI);\n    return true;\n  }\n\n  function _mintWithTokenURI(address _to, string memory _tokenURI) internal {\n    uint _tokenId = totalSupply().add(1);\n    _mint(_to, _tokenId);\n    _setTokenURI(_tokenId, _tokenURI);\n  }\n\n  function addMinter(address _account) public onlyOwner {\n    _addMinter(_account);\n  }\n\n  function removeMinter(address _account) public onlyOwner {\n    _removeMinter(_account);\n  }\n\n  function addPauser(address _account) public onlyOwner {\n    _addPauser(_account);\n  }\n\n  function removePauser(address _account) public onlyOwner {\n    _removePauser(_account);\n  }\n}\n",
  "sourcePath": "/home/seongha/Documents/blockchain/code/PHD/contracts/PHDToken.sol",
  "compiler": {
    "name": "solc",
    "version": "0.5.16+commit.9c3226ce.Emscripten.clang"
  },
  "schemaVersion": "3.1.0",
  "updatedAt": "2020-04-25T23:31:24.709Z",
  "networkType": "ethereum",
  "devdoc": {
    "methods": {
      "balanceOf(address)": {
        "details": "Gets the balance of the specified address.",
        "params": {
          "owner": "address to query the balance of"
        },
        "return": "uint256 representing the amount owned by the passed address"
      },
      "getApproved(uint256)": {
        "details": "Gets the approved address for a token ID, or zero if no address set Reverts if the token ID does not exist.",
        "params": {
          "tokenId": "uint256 ID of the token to query the approval of"
        },
        "return": "address currently approved for the given token ID"
      },
      "isApprovedForAll(address,address)": {
        "details": "Tells whether an operator is approved by a given owner.",
        "params": {
          "operator": "operator address which you want to query the approval of",
          "owner": "owner address which you want to query the approval of"
        },
        "return": "bool whether the given operator is approved by the given owner"
      },
      "isOwner()": {
        "details": "Returns true if the caller is the current owner."
      },
      "name()": {
        "details": "Gets the token name.",
        "return": "string representing the token name"
      },
      "owner()": {
        "details": "Returns the address of the current owner."
      },
      "ownerOf(uint256)": {
        "details": "Gets the owner of the specified token ID.",
        "params": {
          "tokenId": "uint256 ID of the token to query the owner of"
        },
        "return": "address currently marked as the owner of the given token ID"
      },
      "pause()": {
        "details": "Called by a pauser to pause, triggers stopped state."
      },
      "paused()": {
        "details": "Returns true if the contract is paused, and false otherwise."
      },
      "renounceOwnership()": {
        "details": "Leaves the contract without owner. It will not be possible to call `onlyOwner` functions anymore. Can only be called by the current owner.     * > Note: Renouncing ownership will leave the contract without an owner, thereby removing any functionality that is only available to the owner."
      },
      "safeTransferFrom(address,address,uint256)": {
        "details": "Safely transfers the ownership of a given token ID to another address If the target address is a contract, it must implement `onERC721Received`, which is called upon a safe transfer, and return the magic value `bytes4(keccak256(\"onERC721Received(address,address,uint256,bytes)\"))`; otherwise, the transfer is reverted. Requires the msg.sender to be the owner, approved, or operator",
        "params": {
          "from": "current owner of the token",
          "to": "address to receive the ownership of the given token ID",
          "tokenId": "uint256 ID of the token to be transferred"
        }
      },
      "safeTransferFrom(address,address,uint256,bytes)": {
        "details": "Safely transfers the ownership of a given token ID to another address If the target address is a contract, it must implement `onERC721Received`, which is called upon a safe transfer, and return the magic value `bytes4(keccak256(\"onERC721Received(address,address,uint256,bytes)\"))`; otherwise, the transfer is reverted. Requires the msg.sender to be the owner, approved, or operator",
        "params": {
          "_data": "bytes data to send along with a safe transfer check",
          "from": "current owner of the token",
          "to": "address to receive the ownership of the given token ID",
          "tokenId": "uint256 ID of the token to be transferred"
        }
      },
      "supportsInterface(bytes4)": {
        "details": "See `IERC165.supportsInterface`.     * Time complexity O(1), guaranteed to always use less than 30 000 gas."
      },
      "symbol()": {
        "details": "Gets the token symbol.",
        "return": "string representing the token symbol"
      },
      "tokenByIndex(uint256)": {
        "details": "Gets the token ID at a given index of all the tokens in this contract Reverts if the index is greater or equal to the total number of tokens.",
        "params": {
          "index": "uint256 representing the index to be accessed of the tokens list"
        },
        "return": "uint256 token ID at the given index of the tokens list"
      },
      "tokenOfOwnerByIndex(address,uint256)": {
        "details": "Gets the token ID at a given index of the tokens list of the requested owner.",
        "params": {
          "index": "uint256 representing the index to be accessed of the requested tokens list",
          "owner": "address owning the tokens list to be accessed"
        },
        "return": "uint256 token ID at the given index of the tokens list owned by the requested address"
      },
      "tokenURI(uint256)": {
        "details": "Returns an URI for a given token ID. Throws if the token ID does not exist. May return an empty string.",
        "params": {
          "tokenId": "uint256 ID of the token to query"
        }
      },
      "totalSupply()": {
        "details": "Gets the total amount of tokens stored by the contract.",
        "return": "uint256 representing the total amount of tokens"
      },
      "transferOwnership(address)": {
        "details": "Transfers ownership of the contract to a new account (`newOwner`). Can only be called by the current owner."
      },
      "unpause()": {
        "details": "Called by a pauser to unpause, returns to normal state."
      }
    }
  },
  "userdoc": {
    "methods": {}
  }
}